:020000040000FA
:04000000FEEFFFF020
:020000040001F9
:10FF2E0012001200000EBE6E000EC66E000E040110
:10FF3E00006F1200800EBE6E900E03011A6F540EEB
:10FF4E001B6F120001EE01F10D0EEE6AE806FDE1E7
:10FF5E000001C3EFFFF0000E096E000E0A6E000ED8
:10FF6E000B6E000E0C6E000E056E000E066E000E71
:10FF7E00076E000E086E1200048E97ECFFF0B2ECC6
:10FF8E00FFF099ECFFF0A1ECFFF0D4ECFFF098EC51
:10FF9E00FFF0CCEFFFF0FEEFFFF05D0E0E6E700E79
:10FFAE000F6E040E106E000E116EBE28BE6EF2EFB6
:10FFBE00FFF00E06000E0F5A105A115ABF0EBE1841
:10FFCE00D8A4ECEFFFF0EEEFFFF0F2EFFFF0800EB3
:10FFDE00BE6EFDEFFFF00E500F1010101110D8A4D2
:10FFEE00FBEFFFF0FDEFFFF0E0EFFFF01200A9EFE7
:02FFFE00FFF012
:020000040020DA
:10000000FF0FFF0FFF0FFF0FFF0FFF0FFF0FFF0F80
:10001000FF0FFF0FFF0FFF0FFF0FFF0FFF0FFF0F70
:020000040030CA
:0A0000008CFEFFFC9FFFFFFFFFFFD7
:00000001FF
