:020000040000FA
:04000000FEEFFFF020
:020000040001F9
:10FF660012001200120001EE01F1150EEE6AE8060B
:10FF7600FDE10001EDEFFFF0000EC66E200EC76E2C
:10FF8600000ECE6E000E0401006F000EBE6E120053
:10FF9600000E116E000E126E000E136E000E146E21
:10FFA600000E0D6E000E0E6E000E0F6E000E106E21
:10FFB6001200CFAAE1EFFFF0E3EFFFF0E9EFFFF069
:10FFC600010E0126000E022203220422610004F41F
:10FFD600BEF412000C8EB3ECFFF0CBECFFF0BFECDE
:10FFE600FFF0B5ECFFF0DCECFFF0B4ECFFF0F6EF61
:0AFFF600FFF0FEEFFFF0B6EFFFF0A2
:020000040020DA
:10000000FF0FFF0FFF0FFF0FFF0FFF0FFF0FFF0F80
:10001000FF0FFF0FFF0FFF0FFF0FFF0FFF0FFF0F70
:020000040030CA
:0A0000008CFEFFFC9FFFFFFFFFFFD7
:00000001FF
